:0400000002000E32BA
:03000B000200CB25
:0300670002006A2A
:05006A001205CB80FE31
:06006F00E582903004F070
:0500750010990280FB60
:07007A00903004E0F599222B
:09008100758920758DFD759850FC
:03008A003098FDAE
:05008D00E59830E0FBE6
:0500920010980280FB44
:05009700AA998A8222F3
:0E009C00759850758920758DFD758BFD758CDE
:0E00AA0000903000741EF0E4A3F0758A00751B
:0E00B800A882D28ED299C298D28ED299C298C6
:0500C600D288D28C225B
:0E00CB00C0E0C0F0C082C083C002C003C00409
:0E00D900C005C006C007C000C001C0D075D071
:0600E70000D310AF01C3BD
:0E00ED00C0D0903000E0FAA3E0FB1ABAFF0189
:0100FB001BE9
:0E00FC00903000EAF0A3EBF0903000E0FAA3A1
:08010A00E0FB4A600302024D14
:0E011200C2B4D297D2B575823F1202B8758280
:0E012000401202B87582B81202B87582C01281
:0C012E0002B87582001202DD75826E12AC
:0C013A0002DD75826E1202DD75826E120D
:0C01460002DD7582FF1202DD7582FF12DF
:0C01520002DD7582FF1202DD7582FF12D3
:0C015E0002DD7582601202DD75826612FF
:0C016A0002DD7582661202DD75826612ED
:0C01760002DD75820E1202DD7582FF12A0
:0C01820002DD7582FF1202DD7582FF12A3
:0C018E0002DD75827E1202DD7582001217
:0C019A0002DD75827E1202DD75827E128D
:0C01A60002DD7582001202DD7582FF127E
:0C01B20002DD7582FF1202DD7582FF1273
:0C01BE0002DD7582001202DD75827F12E6
:0C01CA0002DD75827F1202DD75827F125B
:0C01D60002DD75827F1202DD7582FF12CF
:0C01E20002DD7582FF1202DD7582FF1243
:0C01EE0002DD7582001202DD7582EE1247
:0C01FA0002DD7582EE1202DD758200123B
:0C02060002DD7582FF1202DD7582FF121E
:0C02120002DD7582FF1202DD7582001211
:0C021E0002DD75826E1202DD75826E1228
:0C022A0002DD7582001202DD7582FF12F9
:0902360002DD7582FF1202DD9069
:0E023F003000741EF0E4A3F0758C00758A0088
:0E024D00D0D092AFD0D0D001D000D007D006D4
:0E025B00D005D004D003D002D083D082D0F0E2
:03026900D0E032B0
:0E026C00AA83E582903005F0A3EAF0903005F9
:09027A00E0FAA3E0FB7C007D002A
:0B028300C3EC9AED9B50147EFB7F043F
:05028E001EBEFF011F70
:0B029300EE4F70F70CBC00E80D80E59A
:01029E00223D
:0D029F00C295D294903002E4F0A374F0F008
:0C02AC0090F000E0FA530280BA00F52246
:0E02B800E582903007F012029FC295C294902A
:0D02C6003002E4F0A374F0F07A007BF090B9
:0A02D3003007E0FC8A828B83F022E2
:0E02DD00E582903008F012029FD295C29490F4
:0D02EB003002E4F0A374F0F07A007BF09094
:0A02F8003008E0FC8A828B83F022BC
:0B030200D29790003212026CC2B422AD
:0B030D00C29790003212026CD2B422A2
:0E031800AAF0AB83E582903009F0A3EBF0A3CE
:0E032600EAF090300C74B8F0A3E4F090300EC2
:0E03340074B9F0A3E4F090301074BAF0A3E4B2
:0E034200F090301274BBF0A3E4F0903014740D
:0E035000BCF0A3E4F090301674BDF0A3E4F00E
:0E035E0090301874BEF0A3E4F090301A74BF13
:0E036C00F0A3E4F07582C01202B8903009E0F0
:0E037A00FAA3E0FBA3E0FC8A058B068C077853
:03038800007900F9
:09038B00C3740798E499500122A3
:0E039400C005C006C007C002C003C004C005FB
:0E03A200C006C007C000C001120302D001D087
:0E03B00000D007D006D005D004D003D00288BC
:0C03BE0005E9CD25E0CD33FEED240CF563
:0C03CA0082EE3430F583E0FDA3E0FE8DF0
:0E03D60082C002C003C004C005C006C007C03C
:0E03E40000C0011202B8D001D000D007D00630
:0E03F200D005D004D003D002758240C002C0F6
:0E04000003C004C005C006C007C000C0011242
:0E040E0002B8D001D000D007D006D005D0042F
:0C041C00D003D0028808E95401A2E0C51A
:060428000813C50813C50E
:0A042E0008F509D007D006D00588B4
:040438000A890B859D
:03043C00080C8524
:05043F00090D743F25CA
:0504440008F50EE4358F
:0304490009F50FA3
:06044C00C3E50E9508E572
:0A0452000F9509404FC005C006C019
:0A045C0007E5082AFDE5093BFE8CC8
:0E046600078D828E838FF0123432FDF582C036
:0E04740002C003C004C005C006C007C000C01F
:0E048200011202DDD001D000D007D006D00557
:0A049000D004D003D0020508E4B543
:04049A000802050946
:08049E00D007D006D00580A6AE
:0E04A600C005C006C007C002C003C004C005E8
:0E04B400C006C007C000C00112030DD001D069
:0E04C20000D007D006D005D004D003D002E54C
:0A04D0000A25E0FDE50B33FEED24E4
:0A04DA000CF582EE3430F583E0FDEE
:0E04E400A3E0FE8D82C002C003C004C005C0AC
:0E04F20006C007C000C0011202B8D001D00041
:0E050000D007D006D005D004D003D0027582FB
:0E050E0040C002C003C004C005C006C007C044
:0E051C0000C0011202B8D001D000D007D006F6
:0C052A00D005D004D003D0027440250C92
:06053600F50EE4350DF5A1
:0C053C000FD007D006D005C005C006C0D7
:0A05480007880C890D8805E95401AD
:0E055200A2E0CD13CD13CDFE747F2DF8E43E54
:07056000F9D007D006D00519
:0A056700C3E8950EE9950F404FC060
:0A05710002C003C004E50E2DFAE5F8
:0C057B000F3EFB8F048A828B838CF012F1
:0E0587003432FAF582C002C003C004C005C0C1
:0E05950006C007C000C0011202DDD001D00078
:0D05A300D007D006D005D004D003D002054B
:0605B0000EE4B50E020589
:0105B6000F35
:0805B700D004D003D00280A89B
:0A05BF007401250CF8E4350DF90273
:0205C900038BA2
:0A05CB0012009C75824112006F744B
:0805D500F9C0E07452C0E0120D
:0B05DD002A3F158115817425C0E074D1
:0B05E80053C0E0122A3F1581158174FA
:0805F30051C0E07453C0E01296
:0B05FB002A3F15811581747CC0E0745C
:0B06060053C0E0122A3F1581158174DB
:08061100AFC0E07453C0E01219
:0B0619002A3F1581158174E2C0E074D7
:0B06240053C0E0122A3F1581158174BD
:08062F000FC0E07454C0E0129A
:0B0637002A3F158115817455C0E07446
:0B06420054C0E0122A3F15811581749E
:08064D009CC0E07454C0E012EF
:0B0655002A3F1581158174CBC0E074B2
:0B06600054C0E0122A3F158115817480
:08066B00FAC0E07454C0E01273
:0B0673002A3F158115817428C0E07437
:0A067E0055C0E0122A3F15811581D6
:09068800744EC0E07455C0E0128C
:060691002A3F15811581CE
:0A069700120081AA82BA1B0280E75C
:0506A100BA63028003B2
:0306A60002076BDD
:0E06A9008A8212006FC297D2B4D2B575823F1A
:0D06B7001202B87582561202B87582B9128F
:0C06C40002B87582E41202B87582FF12C1
:0C06D00002DD7582FF1202DD7582FF1250
:0C06DC0002DD7582FF1202DD7582FF1244
:0C06E80002DD7582FF1202DD7582FF1238
:0C06F40002DD7582FF1202DD7582FF122C
:0E07000002DD7582FF1202DDC2B4D297D2B5BF
:0E070E0075823F1202B87582561202B87582CB
:0E071C00B91202B87582E41202B87582FF129B
:0C072A0002B87582FF1202DD7582FF121A
:0C07360002DD7582FF1202DD7582FF12E9
:0C07420002DD7582FF1202DD7582FF12DD
:0C074E0002DD7582FF1202DD7582FF12D1
:0C075A0002DD7582FF1202DD7582FF12C5
:0507660002DD0206881F
:05076B00BA3602800314
:03077000020DE592
:0E0773008A8212006F903054E0FBA3E0FCC3BA
:0B078100EB9408EC94004003020B32E4
:0E078C00C297D2B4D2B575823F1202B8758200
:0E079A00401202B8903064E0FBA3E0FC74B89B
:0E07A8002BFBF5821202B890304AE0FBA3E072
:0E07B600FC8B821202B87582FF1202DD758282
:0E07C400FF1202DD7582FF1202DD7582FF1248
:0C07D20002DD7582FF1202DD7582FF124D
:0C07DE0002DD7582FF1202DD7582FF1241
:0C07EA0002DD7582FF1202DD7582FF1235
:0C07F60002DD7582FF1202DD7582FF1229
:0C08020002DD7582FF1202DD7582FF121C
:0C080E0002DD7582FF1202DD7582FF1210
:0C081A0002DD7582FF1202DD7582FF1204
:0C08260002DD7582FF1202DD7582FF12F8
:0C08320002DD7582FF1202DD7582FF12EC
:0C083E0002DD7582FF1202DD7582FF12E0
:0C084A0002DD7582FF1202DD7582FF12D4
:0C08560002DD7582FF1202DD7582FF12C8
:0C08620002DD7582FF1202DD7582FF12BC
:0C086E0002DD7582FF1202DD7582FF12B0
:0C087A0002DD7582FF1202DD7582FF12A4
:0C08860002DD7582FF1202DD7582FF1298
:0C08920002DD7582FF1202DD7582FF128C
:0C089E0002DD7582FF1202DD7582FF1280
:0C08AA0002DD7582FF1202DD7582FF1274
:0C08B60002DD7582FF1202DD7582FF1268
:0C08C20002DD7582FF1202DD7582FF125C
:0C08CE0002DD7582FF1202DD7582FF1250
:0C08DA0002DD7582FF1202DD7582FF1244
:0C08E60002DD7582FF1202DD7582FF1238
:0C08F20002DD7582FF1202DD7582FF122C
:0C08FE0002DD7582FF1202DD7582FF1220
:0C090A0002DD75823F1202B875824012B7
:0E09160002B8903064E0FBA3E0FC74B82BFB49
:0E092400F5821202B890304AE0FBA3E0FC908E
:0D0932003062E0FCA3E0FDEC2BFBF582122F
:0C093F0002B87582761202DD75829812F3
:0C094B0002DD7582F31202DD75820612D7
:0E09570002DD7582531202DDC2B4D297D2B512
:0D09650075823F1202B87582401202B890F0
:0E0972003064E0FBA3E0FC74B82BFBF58212AE
:0D09800002B890304AE0FBA3E0FC8B82122D
:0C098D0002B87582FF1202DD7582FF12B5
:0C09990002DD7582FF1202DD7582FF1284
:0C09A50002DD7582FF1202DD7582FF1278
:0C09B10002DD7582FF1202DD7582FF126C
:0C09BD0002DD7582FF1202DD7582FF1260
:0C09C90002DD7582FF1202DD7582FF1254
:0C09D50002DD7582FF1202DD7582FF1248
:0C09E10002DD7582FF1202DD7582FF123C
:0C09ED0002DD7582FF1202DD7582FF1230
:0C09F90002DD7582FF1202DD7582FF1224
:0C0A050002DD7582FF1202DD7582FF1217
:0C0A110002DD7582FF1202DD7582FF120B
:0C0A1D0002DD7582FF1202DD7582FF12FF
:0C0A290002DD7582FF1202DD7582FF12F3
:0C0A350002DD7582FF1202DD7582FF12E7
:0C0A410002DD7582FF1202DD7582FF12DB
:0C0A4D0002DD7582FF1202DD7582FF12CF
:0C0A590002DD7582FF1202DD7582FF12C3
:0C0A650002DD7582FF1202DD7582FF12B7
:0C0A710002DD7582FF1202DD7582FF12AB
:0C0A7D0002DD7582FF1202DD7582FF129F
:0C0A890002DD7582FF1202DD7582FF1293
:0C0A950002DD7582FF1202DD7582FF1287
:0C0AA10002DD7582FF1202DD7582FF127B
:0C0AAD0002DD7582FF1202DD7582FF126F
:0C0AB90002DD7582FF1202DD7582FF1263
:0C0AC50002DD7582FF1202DD7582FF1257
:0C0AD10002DD7582FF1202DD7582FF124B
:0C0ADD0002DD75823F1202B875824012E3
:0E0AE90002B8903064E0FBA3E0FC74B82BFB75
:0E0AF700F5821202B890304AE0FBA3E0FC90BA
:0D0B05003062E0FCA3E0FDEC2BFBF582125A
:0C0B120002B87582761202DD758298121E
:0C0B1E0002DD7582F31202DD7582061202
:080B2A0002DD7582531202DDA9
:0E0B3200903054E0FBA3E0FCC3EB9408EC947D
:060B4000005003020D2528
:0C0B4600C3EB9410EC94004003020D255A
:0E0B5200C2B4D297D2B575823F1202B8758236
:0E0B6000401202B8903064E0FBA3E0FC74B8D1
:0E0B6E002BFBF5821202B890304AE0FBA3E0A8
:0E0B7C00FC8B821202B87582FF1202DD7582B8
:0E0B8A00FF1202DD7582FF1202DD7582FF127E
:0C0B980002DD7582FF1202DD7582FF1283
:0C0BA40002DD7582FF1202DD7582FF1277
:0C0BB00002DD7582FF1202DD7582FF126B
:0C0BBC0002DD7582FF1202DD7582FF125F
:0C0BC80002DD7582FF1202DD7582FF1253
:0C0BD40002DD7582FF1202DD7582FF1247
:0C0BE00002DD7582FF1202DD7582FF123B
:0C0BEC0002DD7582FF1202DD7582FF122F
:0C0BF80002DD7582FF1202DD7582FF1223
:0C0C040002DD7582FF1202DD7582FF1216
:0C0C100002DD7582FF1202DD7582FF120A
:0C0C1C0002DD7582FF1202DD7582FF12FE
:0C0C280002DD7582FF1202DD7582FF12F2
:0C0C340002DD7582FF1202DD7582FF12E6
:0C0C400002DD7582FF1202DD7582FF12DA
:0C0C4C0002DD7582FF1202DD7582FF12CE
:0C0C580002DD7582FF1202DD7582FF12C2
:0C0C640002DD7582FF1202DD7582FF12B6
:0C0C700002DD7582FF1202DD7582FF12AA
:0C0C7C0002DD7582FF1202DD7582FF129E
:0C0C880002DD7582FF1202DD7582FF1292
:0C0C940002DD7582FF1202DD7582FF1286
:0C0CA00002DD7582FF1202DD7582FF127A
:0C0CAC0002DD7582FF1202DD7582FF126E
:0C0CB80002DD7582FF1202DD7582FF1262
:0C0CC40002DD7582FF1202DD7582FF1256
:0C0CD00002DD75823F1202B875824012EE
:0E0CDC0002B8903064E0FBA3E0FC74B82BFB80
:0E0CEA00F5821202B890304AE0FBA3E0FC90C5
:0D0CF8003062E0FCA3E0FDEC2BFBF5821266
:0C0D050002B87582761202DD7582981229
:0C0D110002DD7582F31202DD758206120D
:080D1D0002DD7582531202DDB4
:0E0D2500903054E0FBA3E0FC90305474012B9E
:0E0D3300F0E43CA3F0903054E0C0E0A3E0C038
:0A0D4100E0746FC0E07455C0E07468
:0D0D4B0080C0E0122B93E58124FBF5819020
:0C0D58003064E0C0E0A3E0C0E0747AC0AA
:0C0D6400E07455C0E07480C0E0122B93D6
:0E0D7000E58124FBF581903054E0FBA3E0FC0C
:0E0D7E00BB1030BC002D903054E4F0A3F09078
:0E0D8C003062E0FBA3E0FC903062740F2BF0AD
:0D0D9A00E43CA3F0903064E0FBA3E0FC908B
:0A0DA700306474012BF0E43CA3F06B
:0E0DB100903062E0FBA3E0FCC374409BE49C26
:090DBF005007903062E4F0A3F04B
:0E0DC800903064E0FBA3E0FCBB0805BC000219
:020DD600800398
:030DD80002068888
:0A0DDB00903064E4F0A3F0020688F3
:0E0DE500BA2F35903066E0FBA3E0FC9030663C
:0E0DF30074012BF0E43CA3F0903066E0C0E009
:0A0E0100A3E0C0E07485C0E0745562
:0E0E0B00C0E07480C0E0122B93E58124FBF55B
:040E190081020688C4
:0E0E1D00BA3D24903066E4F0A3F0E4C0E0C0DB
:0A0E2B00E07485C0E07455C0E07467
:0D0E350080C0E0122B93E58124FBF58102C3
:020E4200069711
:050E4400BA77028003F3
:030E4900021ABCCE
:0E0E4C008A8212006F903054E0FBA3E0FC4B52
:050E5A00600302119E7F
:0E0E5F00C297D2B4D2B575823F1202B8758226
:0E0E6D00401202B8903064E0FBA3E0FC74B8C1
:0E0E7B002BFBF5821202B8903062E0FBA3E080
:0E0E8900FC74F02BFBF5821202B87582FF128A
:0C0E970002DD7582FF1202DD7582FF1281
:0C0EA30002DD7582FF1202DD7582FF1275
:0C0EAF0002DD7582FF1202DD7582FF1269
:0C0EBB0002DD7582FF1202DD7582FF125D
:0C0EC70002DD7582FF1202DD7582FF1251
:0C0ED30002DD7582FF1202DD7582FF1245
:0C0EDF0002DD7582FF1202DD7582FF1239
:0C0EEB0002DD7582FF1202DD7582FF122D
:0C0EF70002DD7582FF1202DD7582FF1221
:0C0F030002DD7582FF1202DD7582FF1214
:0C0F0F0002DD7582FF1202DD7582FF1208
:0C0F1B0002DD7582FF1202DD7582FF12FC
:0C0F270002DD7582FF1202DD7582FF12F0
:0C0F330002DD7582FF1202DD7582FF12E4
:0C0F3F0002DD7582FF1202DD7582FF12D8
:0C0F4B0002DD7582FF1202DD7582FF12CC
:0C0F570002DD7582FF1202DD7582FF12C0
:0C0F630002DD7582FF1202DD7582FF12B4
:0C0F6F0002DD7582FF1202DD7582FF12A8
:0C0F7B0002DD7582FF1202DD7582FF129C
:0C0F870002DD7582FF1202DD7582FF1290
:0C0F930002DD7582FF1202DD7582FF1284
:0C0F9F0002DD7582FF1202DD7582FF1278
:0C0FAB0002DD7582FF1202DD7582FF126C
:0C0FB70002DD7582FF1202DD7582FF1260
:0C0FC30002DD7582FF1202DD7582FF1254
:0C0FCF0002DD7582FF1202DD7582FF1248
:0C0FDB0002DD7582FF1202DD75823F12FC
:090FE70002B87582401202B890B4
:0E0FF0003064E0FBA3E0FC74B82BFBF582122A
:0E0FFE0002B8903062E0FBA3E0FC74F02BFB25
:0E100C00F5821202B87582761202DD758298A6
:0D101A001202DD7582F31202DD75820612EE
:0C10270002DD7582531202DD7582FF129B
:0C10330002DD7582FF1202DD7582FF12E3
:0C103F0002DD7582FF1202DD7582FF12D7
:0C104B0002DD7582FF1202DD7582FF12CB
:0C10570002DD7582FF1202DD7582FF12BF
:0C10630002DD7582FF1202DD7582FF12B3
:0C106F0002DD7582FF1202DD7582FF12A7
:0C107B0002DD7582FF1202DD7582FF129B
:0C10870002DD7582FF1202DD7582FF128F
:0C10930002DD7582FF1202DD7582FF1283
:0C109F0002DD7582FF1202DD7582FF1277
:0C10AB0002DD7582FF1202DD7582FF126B
:0C10B70002DD7582FF1202DD7582FF125F
:0C10C30002DD7582FF1202DD7582FF1253
:0C10CF0002DD7582FF1202DD7582FF1247
:0C10DB0002DD7582FF1202DD7582FF123B
:0C10E70002DD7582FF1202DD7582FF122F
:0C10F30002DD7582FF1202DD7582FF1223
:0C10FF0002DD7582FF1202DD7582FF1217
:0C110B0002DD7582FF1202DD7582FF120A
:0C11170002DD7582FF1202DD7582FF12FE
:0C11230002DD7582FF1202DD7582FF12F2
:0C112F0002DD7582FF1202DD7582FF12E6
:0C113B0002DD7582FF1202DD7582FF12DA
:0C11470002DD7582FF1202DD7582FF12CE
:0C11530002DD7582FF1202DD7582FF12C2
:0C115F0002DD7582FF1202DD7582FF12B6
:0C116B0002DD7582FF1202DD7582FF12AA
:0911770002DD7582FF1202DD9019
:0C1180003054E0C0E0A3E0C0E0746FC099
:0C118C00E07455C0E07480C0E0122B93AA
:06119800E58124FBF58156
:0E119E00903054E0FBA3E0FC4B70030214A55C
:0C11AC00C3EB9408EC940040030214A56F
:0E11B800C297D2B4D2B57582761202DD75826E
:0E11C600981202DD7582F31202DD75820612A8
:0C11D40002DD7582531202DD7582FF12ED
:0C11E00002DD7582FF1202DD7582FF1235
:0C11EC0002DD7582FF1202DD7582FF1229
:0C11F80002DD7582FF1202DD7582FF121D
:0C12040002DD7582FF1202DD7582FF1210
:0C12100002DD7582FF1202DD7582FF1204
:0C121C0002DD7582FF1202DD7582FF12F8
:0C12280002DD7582FF1202DD7582FF12EC
:0C12340002DD7582FF1202DD7582FF12E0
:0C12400002DD7582FF1202DD7582FF12D4
:0C124C0002DD7582FF1202DD7582FF12C8
:0C12580002DD7582FF1202DD7582FF12BC
:0C12640002DD7582FF1202DD7582FF12B0
:0C12700002DD7582FF1202DD7582FF12A4
:0C127C0002DD7582FF1202DD7582FF1298
:0C12880002DD7582FF1202DD7582FF128C
:0C12940002DD7582FF1202DD7582FF1280
:0C12A00002DD7582FF1202DD7582FF1274
:0C12AC0002DD7582FF1202DD7582FF1268
:0C12B80002DD7582FF1202DD7582FF125C
:0C12C40002DD7582FF1202DD7582FF1250
:0C12D00002DD7582FF1202DD7582FF1244
:0C12DC0002DD7582FF1202DD7582FF1238
:0C12E80002DD7582FF1202DD7582FF122C
:0C12F40002DD7582FF1202DD7582FF1220
:0C13000002DD7582FF1202DD7582FF1213
:0C130C0002DD7582FF1202DD7582FF1207
:0C13180002DD7582FF1202DD7582FF12FB
:0E13240002DD7582FF1202DDC2B4D297D2B58F
:0D13320075823F1202B87582401202B89019
:0E133F003064E0FBA3E0FC74B82BFBF58212D7
:0C134D0002B87582F01202B87582FF121F
:0C13590002DD7582FF1202DD7582FF12BA
:0C13650002DD7582FF1202DD7582FF12AE
:0C13710002DD7582FF1202DD7582FF12A2
:0C137D0002DD7582FF1202DD7582FF1296
:0C13890002DD7582FF1202DD7582FF128A
:0C13950002DD7582FF1202DD7582FF127E
:0C13A10002DD7582FF1202DD7582FF1272
:0C13AD0002DD7582FF1202DD7582FF1266
:0C13B90002DD7582FF1202DD7582FF125A
:0C13C50002DD7582FF1202DD7582FF124E
:0C13D10002DD7582FF1202DD7582FF1242
:0C13DD0002DD7582FF1202DD7582FF1236
:0C13E90002DD7582FF1202DD7582FF122A
:0C13F50002DD7582FF1202DD7582FF121E
:0C14010002DD7582FF1202DD7582FF1211
:0C140D0002DD7582FF1202DD7582FF1205
:0C14190002DD7582FF1202DD7582FF12F9
:0C14250002DD7582FF1202DD7582FF12ED
:0C14310002DD7582FF1202DD7582FF12E1
:0C143D0002DD7582FF1202DD7582FF12D5
:0C14490002DD7582FF1202DD7582FF12C9
:0C14550002DD7582FF1202DD7582FF12BD
:0C14610002DD7582FF1202DD7582FF12B1
:0C146D0002DD7582FF1202DD7582FF12A5
:0C14790002DD7582FF1202DD7582FF1299
:0C14850002DD7582FF1202DD7582FF128D
:0C14910002DD7582FF1202DD7582FF1281
:08149D0002DD7582FF1202DD81
:0E14A500903054E0FBA3E0FCBB0805BC000245
:0214B3008003B4
:0314B50002181307
:0E14B800C297D2B4D2B575823F1202B87582C7
:0E14C600401202B8903064E0FBA3E0FC74B862
:0E14D4002BFBF5821202B890304AE0FBA3E039
:0E14E200FC903062E0FCA3E0FDEC2BFBF582F9
:0D14F0001202B87582FF1202DD7582FF1234
:0C14FD0002DD7582FF1202DD7582FF1215
:0C15090002DD7582FF1202DD7582FF1208
:0C15150002DD7582FF1202DD7582FF12FC
:0C15210002DD7582FF1202DD7582FF12F0
:0C152D0002DD7582FF1202DD7582FF12E4
:0C15390002DD7582FF1202DD7582FF12D8
:0C15450002DD7582FF1202DD7582FF12CC
:0C15510002DD7582FF1202DD7582FF12C0
:0C155D0002DD7582FF1202DD7582FF12B4
:0C15690002DD7582FF1202DD7582FF12A8
:0C15750002DD7582FF1202DD7582FF129C
:0C15810002DD7582FF1202DD7582FF1290
:0C158D0002DD7582FF1202DD7582FF1284
:0C15990002DD7582FF1202DD7582FF1278
:0C15A50002DD7582FF1202DD7582FF126C
:0C15B10002DD7582FF1202DD7582FF1260
:0C15BD0002DD7582FF1202DD7582FF1254
:0C15C90002DD7582FF1202DD7582FF1248
:0C15D50002DD7582FF1202DD7582FF123C
:0C15E10002DD7582FF1202DD7582FF1230
:0C15ED0002DD7582FF1202DD7582FF1224
:0C15F90002DD7582FF1202DD7582FF1218
:0C16050002DD7582FF1202DD7582FF120B
:0C16110002DD7582FF1202DD7582FF12FF
:0C161D0002DD7582FF1202DD7582FF12F3
:0C16290002DD7582FF1202DD7582FF12E7
:0C16350002DD7582FF1202DD7582FF12DB
:0E16410002DDC2B4D297D2B575823F1202B854
:0E164F007582401202B8903064E0FBA3E0FC0C
:0E165D0074B82BFBF5821202B8903062E0FBED
:0E166B00A3E0FC74F02BFBF5821202B875822E
:0E167900FF1202DD7582FF1202DD7582FF1284
:0C16870002DD7582FF1202DD7582FF1289
:0C16930002DD7582FF1202DD7582FF127D
:0C169F0002DD7582FF1202DD7582FF1271
:0C16AB0002DD7582FF1202DD7582FF1265
:0C16B70002DD7582FF1202DD7582FF1259
:0C16C30002DD7582FF1202DD7582FF124D
:0C16CF0002DD7582FF1202DD7582FF1241
:0C16DB0002DD7582FF1202DD7582FF1235
:0C16E70002DD7582FF1202DD7582FF1229
:0C16F30002DD7582FF1202DD7582FF121D
:0C16FF0002DD7582FF1202DD7582FF1211
:0C170B0002DD7582FF1202DD7582FF1204
:0C17170002DD7582FF1202DD7582FF12F8
:0C17230002DD7582FF1202DD7582FF12EC
:0C172F0002DD7582FF1202DD7582FF12E0
:0C173B0002DD7582FF1202DD7582FF12D4
:0C17470002DD7582FF1202DD7582FF12C8
:0C17530002DD7582FF1202DD7582FF12BC
:0C175F0002DD7582FF1202DD7582FF12B0
:0C176B0002DD7582FF1202DD7582FF12A4
:0C17770002DD7582FF1202DD7582FF1298
:0C17830002DD7582FF1202DD7582FF128C
:0C178F0002DD7582FF1202DD7582FF1280
:0C179B0002DD7582FF1202DD7582FF1274
:0C17A70002DD7582FF1202DD7582FF1268
:0C17B30002DD7582FF1202DD7582FF125C
:0C17BF0002DD7582FF1202DD75823F1210
:0917CB0002B87582401202B890C8
:0E17D4003064E0FBA3E0FC74B82BFBF582123E
:0E17E20002B8903062E0FBA3E0FC74F02BFB39
:0E17F000F5821202B87582761202DD758298BB
:0D17FE001202DD7582F31202DD7582061203
:08180B0002DD7582531202DDBB
:0E181300903054E0FBA3E0FCC374089BE49CFF
:0518210040030219FC68
:0C182600C3EB9410EC940040030219FC8A
:0D18320075823F1202B87582401202B89014
:0E183F003064E0FBA3E0FC74B82BFBF58212D2
:0E184D0002B8903062E0FBA3E0FC74F02BFBCD
:0E185B00F5821202B87582FF1202DD7582FF5F
:0D1869001202DD7582FF1202DD7582FF1292
:0C18760002DD7582FF1202DD7582FF1298
:0C18820002DD7582FF1202DD7582FF128C
:0C188E0002DD7582FF1202DD7582FF1280
:0C189A0002DD7582FF1202DD7582FF1274
:0C18A60002DD7582FF1202DD7582FF1268
:0C18B20002DD7582FF1202DD7582FF125C
:0C18BE0002DD7582FF1202DD7582FF1250
:0C18CA0002DD7582FF1202DD7582FF1244
:0C18D60002DD7582FF1202DD7582FF1238
:0C18E20002DD7582FF1202DD7582FF122C
:0C18EE0002DD7582FF1202DD7582FF1220
:0C18FA0002DD7582FF1202DD7582FF1214
:0C19060002DD7582FF1202DD7582FF1207
:0C19120002DD7582FF1202DD7582FF12FB
:0C191E0002DD7582FF1202DD7582FF12EF
:0C192A0002DD7582FF1202DD7582FF12E3
:0C19360002DD7582FF1202DD7582FF12D7
:0C19420002DD7582FF1202DD7582FF12CB
:0C194E0002DD7582FF1202DD7582FF12BF
:0C195A0002DD7582FF1202DD7582FF12B3
:0C19660002DD7582FF1202DD7582FF12A7
:0C19720002DD7582FF1202DD7582FF129B
:0C197E0002DD7582FF1202DD7582FF128F
:0C198A0002DD7582FF1202DD7582FF1283
:0C19960002DD7582FF1202DD7582FF1277
:0C19A20002DD7582FF1202DD7582FF126B
:0C19AE0002DD75823F1202B87582401203
:0E19BA0002B8903064E0FBA3E0FC74B82BFB95
:0E19C800F5821202B8903062E0FBA3E0FC74DE
:0E19D600F02BFBF5821202B87582761202DD4C
:0E19E4007582981202DD7582F31202DD7582A3
:0A19F200061202DD7582531202DDB9
:0E19FC00903054E0FBA3E0FC90305474012BBB
:0E1A0A00F0E43CA3F0903054E0C0E0A3E0C054
:0A1A1800E0746FC0E07455C0E07484
:0D1A220080C0E0122B93E58124FBF581903C
:0C1A2F003064E0C0E0A3E0C0E0747AC0C6
:0C1A3B00E07455C0E07480C0E0122B93F2
:0E1A4700E58124FBF581903054E0FBA3E0FC28
:0E1A5500BB1030BC002D903054E4F0A3F09094
:0E1A63003062E0FBA3E0FC90306274082BF0D0
:0D1A7100E43CA3F0903064E0FBA3E0FC90A7
:0A1A7E00306474012BF0E43CA3F087
:0E1A8800903062E0FBA3E0FCC374409BE49C42
:091A96005007903062E4F0A3F067
:0E1A9F00903064E0FBA3E0FCBB0805BC000235
:021AAD008003B4
:031AAF00020688A4
:0A1AB200903064E4F0A3F00206880F
:051ABC00BA35028003B1
:031AC100021B8085
:0E1AC400903054E4F0A3F0903056E4F0A3F01C
:0E1AD200903062E4F0A3F0903064E4F0A3F0F2
:0D1AE000903060E4F0A3F0E4C0E0C0E074DA
:0A1AED006FC0E07455C0E07480C0C3
:0E1AF700E0122B93E58124FBF581903056E040
:0B1B0500C0E0A3E0C0E07495C0E074F5
:0C1B100055C0E07480C0E0122B93E5810A
:0E1B1C0024FBF581903062E0C0E0A3E0C0E061
:0A1B2A0074A0C0E07455C0E07480A0
:0E1B3400C0E0122B93E58124FBF58190306414
:0C1B4200E0C0E0A3E0C0E0747AC0E074F2
:0C1B4E0055C0E07480C0E0122B93E581CC
:0E1B5A0024FBF581903060E0C0E0A3E0C0E025
:0A1B680074ABC0E07455C0E0748057
:0E1B7200C0E0122B93E58124FBF5810206975B
:051B8000BA2E028003F3
:031B85000227F242
:0E1B88008A8212006F903054E0FBA3E0FC4B09
:051B96006003021ED4F3
:0E1B9B00C297D2B4D2B575823F1202B87582DD
:0E1BA900401202B8903064E0FBA3E0FC74B878
:0E1BB7002BFBF5821202B8903062E0FBA3E037
:0E1BC500FC74C02BFBF5821202B87582FF1271
:0C1BD30002DD7582FF1202DD7582FF1238
:0C1BDF0002DD7582FF1202DD7582FF122C
:0C1BEB0002DD7582FF1202DD7582FF1220
:0C1BF70002DD7582FF1202DD7582FF1214
:0C1C030002DD7582FF1202DD7582FF1207
:0C1C0F0002DD7582FF1202DD7582FF12FB
:0C1C1B0002DD7582FF1202DD7582FF12EF
:0C1C270002DD7582FF1202DD7582FF12E3
:0C1C330002DD7582FF1202DD7582FF12D7
:0C1C3F0002DD7582FF1202DD7582FF12CB
:0C1C4B0002DD7582FF1202DD7582FF12BF
:0C1C570002DD7582FF1202DD7582FF12B3
:0C1C630002DD7582FF1202DD7582FF12A7
:0C1C6F0002DD7582FF1202DD7582FF129B
:0C1C7B0002DD7582FF1202DD7582FF128F
:0C1C870002DD7582FF1202DD7582FF1283
:0C1C930002DD7582FF1202DD7582FF1277
:0C1C9F0002DD7582FF1202DD7582FF126B
:0C1CAB0002DD7582FF1202DD7582FF125F
:0C1CB70002DD7582FF1202DD7582FF1253
:0C1CC30002DD7582FF1202DD7582FF1247
:0C1CCF0002DD7582FF1202DD7582FF123B
:0C1CDB0002DD7582FF1202DD7582FF122F
:0C1CE70002DD7582FF1202DD7582FF1223
:0C1CF30002DD7582FF1202DD7582FF1217
:0C1CFF0002DD7582FF1202DD7582FF120B
:0C1D0B0002DD7582FF1202DD7582FF12FE
:0C1D170002DD7582FF1202DD75823F12B2
:091D230002B87582401202B8906A
:0E1D2C003064E0FBA3E0FC74B82BFBF58212E0
:0E1D3A0002B8903062E0FBA3E0FC74C02BFB0B
:0E1D4800F5821202B87582761202DD7582985D
:0D1D56001202DD7582F31202DD75820612A5
:0E1D630002DD7582531202DDC2B4D297D2B5F2
:0E1D71007582FF1202DD7582FF1202DD75829F
:0E1D7F00FF1202DD7582FF1202DD7582FF1277
:0C1D8D0002DD7582FF1202DD7582FF127C
:0C1D990002DD7582FF1202DD7582FF1270
:0C1DA50002DD7582FF1202DD7582FF1264
:0C1DB10002DD7582FF1202DD7582FF1258
:0C1DBD0002DD7582FF1202DD7582FF124C
:0C1DC90002DD7582FF1202DD7582FF1240
:0C1DD50002DD7582FF1202DD7582FF1234
:0C1DE10002DD7582FF1202DD7582FF1228
:0C1DED0002DD7582FF1202DD7582FF121C
:0C1DF90002DD7582FF1202DD7582FF1210
:0C1E050002DD7582FF1202DD7582FF1203
:0C1E110002DD7582FF1202DD7582FF12F7
:0C1E1D0002DD7582FF1202DD7582FF12EB
:0C1E290002DD7582FF1202DD7582FF12DF
:0C1E350002DD7582FF1202DD7582FF12D3
:0C1E410002DD7582FF1202DD7582FF12C7
:0C1E4D0002DD7582FF1202DD7582FF12BB
:0C1E590002DD7582FF1202DD7582FF12AF
:0C1E650002DD7582FF1202DD7582FF12A3
:0C1E710002DD7582FF1202DD7582FF1297
:0C1E7D0002DD7582FF1202DD7582FF128B
:0C1E890002DD7582FF1202DD7582FF127F
:0C1E950002DD7582FF1202DD7582FF1273
:0C1EA10002DD7582001202DD7582001265
:091EAD0002DD7582001202DD90D5
:0C1EB6003054E0C0E0A3E0C0E0746FC056
:0C1EC200E07455C0E07480C0E0122B9367
:061ECE00E58124FBF58113
:0E1ED400903054E0FBA3E0FC4B70030221DBD6
:0C1EE200C3EB9408EC940040030221DBE9
:0E1EEE00C297D2B4D2B57582761202DD75822B
:0E1EFC00981202DD7582F31202DD7582061265
:0C1F0A0002DD7582531202DD7582FF12A9
:0C1F160002DD7582FF1202DD7582FF12F1
:0C1F220002DD7582FF1202DD7582FF12E5
:0C1F2E0002DD7582FF1202DD7582FF12D9
:0C1F3A0002DD7582FF1202DD7582FF12CD
:0C1F460002DD7582FF1202DD7582FF12C1
:0C1F520002DD7582FF1202DD7582FF12B5
:0C1F5E0002DD7582FF1202DD7582FF12A9
:0C1F6A0002DD7582FF1202DD7582FF129D
:0C1F760002DD7582FF1202DD7582FF1291
:0C1F820002DD7582FF1202DD7582FF1285
:0C1F8E0002DD7582FF1202DD7582FF1279
:0C1F9A0002DD7582FF1202DD7582FF126D
:0C1FA60002DD7582FF1202DD7582FF1261
:0C1FB20002DD7582FF1202DD7582FF1255
:0C1FBE0002DD7582FF1202DD7582FF1249
:0C1FCA0002DD7582FF1202DD7582FF123D
:0C1FD60002DD7582FF1202DD7582FF1231
:0C1FE20002DD7582FF1202DD7582FF1225
:0C1FEE0002DD7582FF1202DD7582FF1219
:0C1FFA0002DD7582FF1202DD7582FF120D
:0C20060002DD7582FF1202DD7582FF1200
:0C20120002DD7582FF1202DD7582FF12F4
:0C201E0002DD7582FF1202DD7582FF12E8
:0C202A0002DD7582FF1202DD7582FF12DC
:0C20360002DD7582FF1202DD7582FF12D0
:0C20420002DD7582FF1202DD7582FF12C4
:0C204E0002DD7582FF1202DD7582FF12B8
:0E205A0002DD7582FF1202DDC2B4D297D2B54C
:0D20680075823F1202B87582401202B890D6
:0E2075003064E0FBA3E0FC74B82BFBF5821294
:0C20830002B87582F01202B87582FF12DC
:0C208F0002DD7582FF1202DD7582FF1277
:0C209B0002DD7582FF1202DD7582FF126B
:0C20A70002DD7582FF1202DD7582FF125F
:0C20B30002DD7582FF1202DD7582FF1253
:0C20BF0002DD7582FF1202DD7582FF1247
:0C20CB0002DD7582FF1202DD7582FF123B
:0C20D70002DD7582FF1202DD7582FF122F
:0C20E30002DD7582FF1202DD7582FF1223
:0C20EF0002DD7582FF1202DD7582FF1217
:0C20FB0002DD7582FF1202DD7582FF120B
:0C21070002DD7582FF1202DD7582FF12FE
:0C21130002DD7582FF1202DD7582FF12F2
:0C211F0002DD7582FF1202DD7582FF12E6
:0C212B0002DD7582FF1202DD7582FF12DA
:0C21370002DD7582FF1202DD7582FF12CE
:0C21430002DD7582FF1202DD7582FF12C2
:0C214F0002DD7582FF1202DD7582FF12B6
:0C215B0002DD7582FF1202DD7582FF12AA
:0C21670002DD7582FF1202DD7582FF129E
:0C21730002DD7582FF1202DD7582FF1292
:0C217F0002DD7582FF1202DD7582FF1286
:0C218B0002DD7582FF1202DD7582FF127A
:0C21970002DD7582FF1202DD7582FF126E
:0C21A30002DD7582FF1202DD7582FF1262
:0C21AF0002DD7582FF1202DD7582FF1256
:0C21BB0002DD7582FF1202DD7582FF124A
:0C21C70002DD7582FF1202DD7582FF123E
:0821D30002DD7582FF1202DD3E
:0E21DB00903054E0FBA3E0FCBB0805BC000202
:0221E900800371
:0321EB0002254981
:0E21EE00C297D2B4D2B575823F1202B8758284
:0E21FC00401202B8903064E0FBA3E0FC74B81F
:0E220A002BFBF5821202B890304AE0FBA3E0F5
:0E221800FC903062E0FCA3E0FDEC2BFBF582B5
:0D2226001202B87582FF1202DD7582FF12F0
:0C22330002DD7582FF1202DD7582FF12D1
:0C223F0002DD7582FF1202DD7582FF12C5
:0C224B0002DD7582FF1202DD7582FF12B9
:0C22570002DD7582FF1202DD7582FF12AD
:0C22630002DD7582FF1202DD7582FF12A1
:0C226F0002DD7582FF1202DD7582FF1295
:0C227B0002DD7582FF1202DD7582FF1289
:0C22870002DD7582FF1202DD7582FF127D
:0C22930002DD7582FF1202DD7582FF1271
:0C229F0002DD7582FF1202DD7582FF1265
:0C22AB0002DD7582FF1202DD7582FF1259
:0C22B70002DD7582FF1202DD7582FF124D
:0C22C30002DD7582FF1202DD7582FF1241
:0C22CF0002DD7582FF1202DD7582FF1235
:0C22DB0002DD7582FF1202DD7582FF1229
:0C22E70002DD7582FF1202DD7582FF121D
:0C22F30002DD7582FF1202DD7582FF1211
:0C22FF0002DD7582FF1202DD7582FF1205
:0C230B0002DD7582FF1202DD7582FF12F8
:0C23170002DD7582FF1202DD7582FF12EC
:0C23230002DD7582FF1202DD7582FF12E0
:0C232F0002DD7582FF1202DD7582FF12D4
:0C233B0002DD7582FF1202DD7582FF12C8
:0C23470002DD7582FF1202DD7582FF12BC
:0C23530002DD7582FF1202DD7582FF12B0
:0C235F0002DD7582FF1202DD7582FF12A4
:0C236B0002DD7582FF1202DD7582FF1298
:0E23770002DDC2B4D297D2B575823F1202B811
:0E2385007582401202B8903064E0FBA3E0FCC9
:0E23930074B82BFBF5821202B8903062E0FBAA
:0E23A100A3E0FC74C02BFBF5821202B875821B
:0E23AF00FF1202DD7582FF1202DD7582FF1241
:0C23BD0002DD7582FF1202DD7582FF1246
:0C23C90002DD7582FF1202DD7582FF123A
:0C23D50002DD7582FF1202DD7582FF122E
:0C23E10002DD7582FF1202DD7582FF1222
:0C23ED0002DD7582FF1202DD7582FF1216
:0C23F90002DD7582FF1202DD7582FF120A
:0C24050002DD7582FF1202DD7582FF12FD
:0C24110002DD7582FF1202DD7582FF12F1
:0C241D0002DD7582FF1202DD7582FF12E5
:0C24290002DD7582FF1202DD7582FF12D9
:0C24350002DD7582FF1202DD7582FF12CD
:0C24410002DD7582FF1202DD7582FF12C1
:0C244D0002DD7582FF1202DD7582FF12B5
:0C24590002DD7582FF1202DD7582FF12A9
:0C24650002DD7582FF1202DD7582FF129D
:0C24710002DD7582FF1202DD7582FF1291
:0C247D0002DD7582FF1202DD7582FF1285
:0C24890002DD7582FF1202DD7582FF1279
:0C24950002DD7582FF1202DD7582FF126D
:0C24A10002DD7582FF1202DD7582FF1261
:0C24AD0002DD7582FF1202DD7582FF1255
:0C24B90002DD7582FF1202DD7582FF1249
:0C24C50002DD7582FF1202DD7582FF123D
:0C24D10002DD7582FF1202DD7582FF1231
:0C24DD0002DD7582FF1202DD7582FF1225
:0C24E90002DD7582FF1202DD7582FF1219
:0C24F50002DD7582FF1202DD75823F12CD
:0925010002B87582401202B89084
:0E250A003064E0FBA3E0FC74B82BFBF58212FA
:0E25180002B8903062E0FBA3E0FC74C02BFB25
:0E252600F5821202B87582761202DD75829877
:0D2534001202DD7582F31202DD75820612BF
:0825410002DD7582531202DD78
:0E254900903054E0FBA3E0FCC374089BE49CBC
:052557004003022732E1
:0C255C00C3EB9410EC9400400302273203
:0D25680075823F1202B87582401202B890D1
:0E2575003064E0FBA3E0FC74B82BFBF582128F
:0E25830002B8903062E0FBA3E0FC74C02BFBBA
:0E259100F5821202B87582FF1202DD7582FF1C
:0D259F001202DD7582FF1202DD7582FF124F
:0C25AC0002DD7582FF1202DD7582FF1255
:0C25B80002DD7582FF1202DD7582FF1249
:0C25C40002DD7582FF1202DD7582FF123D
:0C25D00002DD7582FF1202DD7582FF1231
:0C25DC0002DD7582FF1202DD7582FF1225
:0C25E80002DD7582FF1202DD7582FF1219
:0C25F40002DD7582FF1202DD7582FF120D
:0C26000002DD7582FF1202DD7582FF1200
:0C260C0002DD7582FF1202DD7582FF12F4
:0C26180002DD7582FF1202DD7582FF12E8
:0C26240002DD7582FF1202DD7582FF12DC
:0C26300002DD7582FF1202DD7582FF12D0
:0C263C0002DD7582FF1202DD7582FF12C4
:0C26480002DD7582FF1202DD7582FF12B8
:0C26540002DD7582FF1202DD7582FF12AC
:0C26600002DD7582FF1202DD7582FF12A0
:0C266C0002DD7582FF1202DD7582FF1294
:0C26780002DD7582FF1202DD7582FF1288
:0C26840002DD7582FF1202DD7582FF127C
:0C26900002DD7582FF1202DD7582FF1270
:0C269C0002DD7582FF1202DD7582FF1264
:0C26A80002DD7582FF1202DD7582FF1258
:0C26B40002DD7582FF1202DD7582FF124C
:0C26C00002DD7582FF1202DD7582FF1240
:0C26CC0002DD7582FF1202DD7582FF1234
:0C26D80002DD7582FF1202DD7582FF1228
:0C26E40002DD75823F1202B875824012C0
:0E26F00002B8903064E0FBA3E0FC74B82BFB52
:0E26FE00F5821202B8903062E0FBA3E0FC749B
:0E270C00F02BFBF5821202B87582761202DD08
:0E271A007582981202DD7582F31202DD75825F
:0A272800061202DD7582531202DD75
:0E273200903054E0FBA3E0FC90305474012B77
:0E274000F0E43CA3F0903054E0C0E0A3E0C011
:0A274E00E0746FC0E07455C0E07441
:0D27580080C0E0122B93E58124FBF58190F9
:0C2765003064E0C0E0A3E0C0E0747AC083
:0C277100E07455C0E07480C0E0122B93AF
:0E277D00E58124FBF581903054E0FBA3E0FCE5
:0E278B00BB1030BC002D903054E4F0A3F09051
:0E2799003062E0FBA3E0FC90306274082BF08D
:0D27A700E43CA3F0903064E0FBA3E0FC9064
:0A27B400306474012BF0E43CA3F044
:0E27BE00903062E0FBA3E0FCC374409BE49CFF
:0927CC005007903062E4F0A3F024
:0E27D500903064E0FBA3E0FCBB0805BC0002F2
:0227E300800371
:0327E50002068861
:0A27E800903064E4F0A3F0020688CC
:0D27F200BA310C904C6F75F0801203180284
:0227FF0006884A
:0D280100BA760C90486F75F0801203180233
:02280E0006883A
:0C281000BA7309C288C2A9C2AF020688D0
:0E281C00BA7827C29790006412026CD2B4D230
:0E282A00B575823F1202B87582401202B87571
:0C28380082B81202B87582C01202B80209
:02284400068804
:0E284600BA7231D29790006412026CD2B4C202
:0E285400B490006412026CD297D2B575823F28
:0D2862001202B87582561202B87582B812C3
:09286F0002B87582C01202B80221
:022878000688D0
:0C287A00BA6509D288D2A9D2AF02068844
:05288600BA5B028003B3
:03288B000229BD62
:0E288E00C2B4D297D2B575823F1202B87582DD
:0E289C00401202B87582B81202B87582C012DE
:0C28AA0002B87582001202DD75826E1209
:0C28B60002DD75826E1202DD75826E126A
:0C28C20002DD7582FF1202DD7582FF123C
:0C28CE0002DD7582FF1202DD7582FF1230
:0C28DA0002DD7582601202DD758266125C
:0C28E60002DD7582661202DD758266124A
:0C28F20002DD75820E1202DD7582FF12FD
:0C28FE0002DD7582FF1202DD7582FF1200
:0C290A0002DD75827E1202DD7582001273
:0C29160002DD75827E1202DD75827E12E9
:0C29220002DD7582001202DD7582FF12DA
:0C292E0002DD7582FF1202DD7582FF12CF
:0C293A0002DD7582001202DD75827F1242
:0C29460002DD75827F1202DD75827F12B7
:0C29520002DD75827F1202DD7582FF122B
:0C295E0002DD7582FF1202DD7582FF129F
:0C296A0002DD7582001202DD7582EE12A3
:0C29760002DD7582EE1202DD7582001297
:0C29820002DD7582FF1202DD7582FF127B
:0C298E0002DD7582FF1202DD758200126E
:0C299A0002DD75826E1202DD75826E1285
:0C29A60002DD7582001202DD7582FF1256
:0929B20002DD7582FF1202DD0254
:0229BB0006888C
:0529BD00BA390280039D
:0329C200022A1FC7
:0D29C50090003212026C90346F75F0801299
:0929D200031890006412026C90DD
:0C29DB00386F75F0801203189000641231
:0929E700026C903C6F75F0801247
:0929F000031890006412026C90BF
:0C29F900406F75F080120318900064120B
:092A0500026C90446F75F0801220
:0C2A0E00031890006412026C9000641227
:052A1A00026C020688B9
:052A1F00BA380280033B
:032A240002069710
:0D2A270090003212026C90446F75F0801226
:092A3400031890006412026C0208
:022A3D00068809
:0E346F0000000000000000000000000000004F
:0E347D0000000000000080800080C030582851
:0E348B00B0D4549068CC9EF2F2F22C6820ACC3
:0E349900684A50501870714009A8B094D4646D
:0E34A70068AC80F1686CACB0D88C8E323032DC
:0E34B5009CF8B460D0600000C04080000000B1
:0E34C3000000000000000000000000000000FB
:0E34D1000000000000000000000000000000ED
:0E34DF000000000000000000000000000000DF
:0E34ED000000000000000000000000000000D1
:0E34FB00000000000000081825570C4B197A3D
:0E35090095DBA4332F1488434124A2D03357FE
:0E3517000FF372331BFD6D4CA659232E3A03A1
:0E3525000505050101040C0B03048A05050FC2
:0E3533000A1315140605130004000001000120
:0E354100040000000000000000000000000078
:0E354F0000000000000000000000000000006E
:0E355D00000000000000000000000000000060
:0E356B00000000000000000000000000000052
:0E357900000000000000000000000000000044
:0E358700010000040102080000000001000025
:0E35950001000001000001010000000080188C
:0E35A30000404084EAA6745514350508223D08
:0E35B100031C8F02109888809058686878502C
:0E35BF009060B06040C08080000000000000FE
:0E35CD000000000000000000000000000000F0
:0E35DB000000000000000000000000000000E2
:0E35E9000000000000000000000000000000D4
:0E35F7000000000000000000000000000000C6
:0E3605000000000000000000000000000001B6
:0E3613000200000000000000000000000000A7
:0E362100000102080A8B08850202C04002A1C7
:0E362F0060A32063DAD1695050E8A8C8E8A86B
:0E363D00A819E9B0A0694955122D455494C84A
:0E364B002080403000C0001010003040408051
:0E365900000000000000000000001000B08023
:0E366700A0A00000C04000A000000000000075
:0E367500000000000000000000000000000047
:0E36830000000000000000C000404080A06079
:0E3691004080A08000A08020A080804020A06B
:0E369F00E050A02888406000911920114A35A3
:0E36AD00AF52A2A2A5038400408505020403CB
:0E36BB00050222252680444503B260039223B7
:0E36C900121021001100101020300008100A0D
:0E36D70000000480808060000800040C1513C1
:0E36E5001A150B34B5AD685417DA000000005A
:0E36F30080A02040A030A0C030DCA84C9292F5
:0E370100929292929292FEFFFEFFFEFFFFFE5A
:0E370F00FFFFFFFFFEFEFFFFFEFFFFFEFFFFBE
:0E371D00FEFE8CD7D270690800510104040230
:0E372B00010205000000000001000000000087
:0E373900000000000000000000000000000082
:0E374700000000000000000000002010101024
:0E3755001002040904010A0200000000000036
:0E376300000000000000000000010002FEFF58
:0E377100FFFEFFFEFEFFFEFFFFFEFFFEFFFF5E
:0E377F00FFFFFFFFFFFFFFFFFFFFFFFFFFFF4A
:0E378D00FFFFFFFFFFFFFFFFFFFFFFFFFFFF3C
:0E379B00FFFFFFFFFEFFFEFEFFFFFFFF2118F6
:0E37A9002008080800080000000000000000D2
:0E37B700000000000000000000000000000004
:0E37C5000000000000000000000000000000F6
:0E37D3000000000000000000000000000000E8
:0E37E1000000000000000000000000000000DA
:0E37EF000101010101010101010101010101BE
:0E37FD000101010101010101010101010101B0
:0E380B000101010101010101010101010101A1
:0E381900010101010101010101010101010193
:0E382700000000000000000000000000000093
:0E383500000000000000000000000000000085
:0E384300000000000000000000000000000077
:0E385100000000000000000000000000000069
:0E385F0000000000000000000000000000005B
:02386D00000059
:0E386F0000000000000000000000000000004B
:0E387D0000000000000000000000000000003D
:0E388B0000000000000000000000000000002F
:0E3899000000000080C04020202020202020C1
:0E38A700202020103030303030307ED1101014
:0E38B50020E06060E0E3FFDFFCFCFCF8783010
:0E38C300206060C040C040C040C0404080C097
:0E38D1008080808080800000000000000000E9
:0E38DF000000000000000000000000000000DB
:0E38ED000000000000000000000000000000CD
:0E38FB000000000000000000000000000000BF
:0E3909000000000000000000000000000000B0
:0E391700FCFE360203010118F9C103F7E6FEBB
:0E392500FCF85060E1C1C1C3F6DEC6040C0C14
:0E3933000808181F3C7E7FFFFFFFFFFFFFE725
:0E394100600000000000000000000000000414
:0E394F0000040000000001050103022E3CF8F8
:0E395D00F8F0E0E0E0C0C080000000000000D4
:0E396B0000000000000018387878F8F8F8E83E
:0E397900E0E0C0C0C080800000000000000040
:0E3987000000000000000000000000000080B2
:0E399500C0F0FFFFF840000000060300120F14
:0E39A300DFE7FE0F03000000030D9FBFFF7F54
:0E39B100E0712F131112309E9EFCF8FBFFFCFC
:0E39BF00FE9A3262800000000000000000004E
:0E39CD000000000000000000000000000000EC
:0E39DB00000107DFFFFFFFFFFDB347FEFCF01A
:0E39E9000000000000000000000000000001CF
:0E39F700050515373777F7EFEFFFFFEFFFDE1F
:0E3A0500FEFCFCF8F0F0E060200010084442E7
:0E3A1300D9B7EFFFFFFFFF810038783C1C0E93
:0E3A2100060203010000000002030101818083
:0E3A2F0080FCC3E07008FEFF8378FEFFFFFFFF
:0E3A3D00FFFFFFFFFE78000000000000000009
:0E3A4B0000000000000000000000000000006D
:0E3A5900000000000000FFFFFFFFFFFDFEF970
:0E3A6700DFFFFF000000000000408080C0E490
:0E3A7500ECFCFCFEFCFCFCFCFCF8F9F9FDFF8F
:0E3A8300F7E7E5C7C38383810102040C181026
:0E3A91003060C080000103071F1F7F7CF8F823
:0E3A9F00F87060606040000008008010407009
:0E3AAD00D0D8D9FFF1E1C0808001031F0FF3D4
:0E3ABB00FD1F0F0703010000000000000000C7
:0E3AC90010C024D860C0000000000000000003
:0E3AD700000000000000001EFFF7FFFFFFFFD1
:0E3AE500FFFFFFFF3F00000000000000000098
:0E3AF3000103070F0B7FF7FFFFFFFFFFFFFF31
:0E3B0100FFFFFFFFFFFFFFFFFFFFFFFFFEFEC6
:0E3B0F00FCFCFCF8F0F1E3E6C48C983060C0DA
:0E3B1D00C0C38FBFBEFC7070E0E0E0C040008F
:0E3B2B000000000103070F0B18020101010248
:0E3B3900BFF98080808080C0C0E0E0E0E0E462
:0E3B4700C0C0C080010205061D3FC4B4C910F5
:0E3B550002000000000000000000FFFFFFFF64
:0E3B6300FFFFFF7F1F03000000000000101096
:0E3B71001020307070707020000001010717E6
:0E3B7F002F6FFFFFFFFFFFFFFFFFFFFFFFFFA6
:0E3B8D00FFFFFFFFFFFFFFFFFFFFFF3F0703EC
:0E3B9B00010000000001010303070F0F1E3898
:0E3BA90040C0902043FFFF76E642C064740CDB
:0E3BB7001830C79F7FFFFFFFFFFFFFFFFFFFDC
:0E3BC500FFFFFFFFFFFFFFFEFCF8F8F0F0E14E
:0E3BD300E7E7EFFEF8F8FAFEFCF8FFFEFCFF55
:0E3BE100FFBF0F070100000000000000000001
:0E3BEF000000000000000000000000000000C8
:0E3BFD000000000000050B13372F6F5FBF7F25
:0E3C0B00FFFFFFFFFFFFFFFF7F3F0F030000E3
:0E3C190000000000000000000000000000009D
:0E3C2700000000000101020205050509080861
:0E3C3500080C1C141F3B3C3F7F7FFFFFFFFF6E
:0E3C4300FFFFFFFFFFFFFFFFFFFFFFFFEFFF91
:0E3C5100FFFFFFFFFFFFFF7F3F1F0F0F070763
:0E3C5F00010100000000000000000000000055
:023C6D00000055
:0E3C6F000000C0B84AB5D57AADFACFFDEEFF21
:0E3C7D00FFFFFFFFFFFFFFFFFBBEF5ABFFDF0A
:0E3C8B00FFFFFFFFFFFFFFFFFFFF7FFF6FFF49
:0E3C9900BDF7EFBBEFDBBFEE7FDD7AF5E9D6BE
:0E3CA700ECA850B040C000000000000000007B
:0E3CB500000000000000000000000000000001
:0E3CC3000000000000000000000000000000F3
:0E3CD1000000000000000000000000000000E5
:0E3CDF000000000000000000000000000000D7
:0E3CED00000080BAE5FADFF57ADFF65BEFBD86
:0E3CFB00EF7FFFFFDFFFFF7F5F1F57071507FB
:0E3D0900010701060B070F170F2F5F3FDFBFEB
:0E3D1700FDB7FDEEFFBDF6FBEFFEBBFFF5DFD7
:0E3D2500AEFFBBEFFBDE75DE75DBB4EC50A825
:0E3D330050A040808000000000000000000052
:0E3D4100000000000000000000000000000074
:0E3D4F00000000000000000000000000000066
:0E3D5D00000000000000000000000000000058
:0E3D6B000000000000BEFFFEFFDBFFFAFFFFBE
:0E3D79007FD73DEB5EE33C1701000100000028
:0E3D87000000000000000000000000008000AE
:0E3D95000002000B052A9F37AE7BDFFFFFFE0A
:0E3DA300FBDFFFFEFBFEFBEFFFBDFBFFFEDFC5
:0E3DB100F5FFF5EEFDD6FAF5F5EAE8D4D4A854
:0E3DBF00D0A850E050A0A0E0A0A0C06080C03E
:0E3DCD00008000000000000000000000000068
:0E3DDB000000000000000000000000000000DA
:0E3DE9000000000000000002BFFFFFFEFFFF11
:0E3DF700FFFFFFD5AAFF85DAC500800000009F
:0E3E050000000000000000002808AC26520952
:0E3E130014083E9486640C0C0A14030C12432F
:0E3E21000FBFFFFFFFFFFFFFFFFFFFFFFEFBD6
:0E3E2F00FFFFFFFFFFFFFFFFFFFEFFFFFFFF94
:0E3E3D00FFFFFFFF7FFF7FBFBE5F3E1F5E1FC8
:0E3E4B001D3E171E161B1E000000000000008A
:0E3E590000000000000000000000000000005B
:0E3E670000000000000000000000000FFFFF40
:0E3E7500FFFFFFFFFFFDFFAE5C1E3627464B32
:0E3E83002F02251002000000000000000000C9
:0E3E91000000000100000000000000400000E2
:0E3E9F00A2095400AB2FBFFFFFFFFFFFFFFF84
:0E3EAD00FFFFFFFFFFFFFFFFFFFFFFDBEFFF49
:0E3EBB00FF7FDF5FBF5F3F574F5F0E1F1F2D62
:0E3EC9001E561C2C5408280820000000000083
:0E3ED7000000000000000000000000000000DD
:0E3EE5000000000000000000000000000000CF
:0E3EF300002FBFFFFFFFFFFFFFFFFEFDF0C02F
:0E3F0100C000000000000000000000000000F2
:0E3F0F00008000000024002A000008010000CD
:0E3F1D0002400A805500AAA0FAFFFFFFFFFF36
:0E3F2B00FFFFFFFFFFFFFFFFFFFF5F97F56F38
:0E3F3900BF573FAF1D7516A842144008000187
:0E3F470000000000000000000000000000006C
:0E3F550000000000000000000000000000005E
:0E3F6300000000000000000000000000000050
:0E3F7100000000000107FFFFFFFFFFFFFFFF42
:0E3F7F00FFFFFFFFFEFCF8F0E0C0C080000076
:0E3F8D002020A032A039A8985CD84CA0560085
:0E3F9B002A01A802A8E469B42EAF5FBFBF7F61
:0E3FA900FF7FFFFFFFFFFFFFFFAF7B0FAF1A91
:0E3FB700B562C984210411000400000000005E
:0E3FC5000000000000000000000000000000EE
:0E3FD3000000000000000000000000000000E0
:0E3FE1000000000000000000000000000000D2
:0E3FEF00000000000000000000033FFFFFFF85
:0E3FFD00FFFFFFFFFFFFFFFFFFFFFFFFFFFFC4
:0E400B00FFFFFEFCFCF8F8F1E0F2E1E862686D
:0E40190031A8E8BAECD66FABB5AAF5AA55AA45
:0E4027006ADAA55AEDF6FFFFFFFFFF5C01AA63
:0E40350004401200048011020100000000008F
:0E40430000000000000000000000000000006F
:0E4051008000000000000000000000000000E1
:0E405F00000000000000000000000000000053
:02406D00000051
:0E406F0000000000C0D08080808040400040F3
:0E407D00608080800000008000008080008055
:0E408B0080008080C0C00000008080C04060C7
:0E4099002000000000000000000000000038C1
:0E40A700ECEC7C18000000007EFFFCE0000046
:0E40B5000000000000000000000000000000FD
:0E40C3000000000000000000000000000000EF
:0E40D1000000000000000000000000000000E1
:0E40DF000000000000000000000000000000D3
:0E40ED000000700402131008000C0E0C040CEE
:0E40FB00202233130B05060604071EF770384B
:0E4109003C3312090D050606020301000000FA
:0E41170000000080201010101808040406029A
:0E41250003010040100000000000002FFFFF0B
:0E413300E800000000000000008080C0404056
:0E4141006020301000000000000000000000B0
:0E414F00000000000000000000000000000062
:0E415D00000000000000000000000000000054
:0E416B00000000000100000000000000000045
:0E41790050000000000000000A3F7EF8F080B9
:0E41870000001038E0000080F0C0B8E0C0007A
:0E41950000001E7FE7C7878F8F9FDEFCFCF8BF
:0E41A300300000001631203000C04060303087
:0E41B1003FFFFF8C0C040602030341F90000DF
:0E41BF000000000000000000000000000000F2
:0E41CD000000000000000000000000000000E4
:0E41DB000000000000000000000000000000D6
:0E41E9000000000000000000000000008080C8
:0E41F700809F18303000004060C04000000380
:0E4205000F7FFEF0C000010381C3C0E0F1F1A5
:0E421300F8B8BC9C9E9E8F8F87C78783C181A1
:0E422100C0C0C080C0C0C0C0C0C0C0C0C0C04F
:0E422F00C0C0C0FFFFFF8000000000686344B5
:0E423D00CA59590000000000000000000000F7
:0E424B00000000000000000000000000000065
:0E425900000000000000000000000000000057
:0E42670000000000000000000000000000C089
:0E4275006001030303063C60320200000000FB
:0E4283000080C0E0F77F1F3E78F0E7C787039A
:0E42910007070307030703030383C3E3F3F3E5
:0E429F007B3B3B3F1F1F1F1F0F0F0F0F07071B
:0E42AD000303030300027FFFFD8000000000FA
:0E42BB00000000000E1E3CF8F0800000000025
:0E42C9000000000000000000000000000000E7
:0E42D7000000000000000000000000000000D9
:0E42E50000000000000000000000000000F8D3
:0E42F300DF810000808080C0C0E0E0F0F8783D
:0E4301003C1E0F0707010000000000000183B2
:0E430F00C7C70E1E1C3C387870F0FCFFFBF197
:0E431D00E0E0E0E0C00000000000000080C012
:0E432B000000000000000000010F3F7E78F04F
:0E433900F0E0E0E0E0E0707038380F020000C5
:0E434700000000000000000000000000000068
:0E43550000000000000000000000000000005A
:0E43630000000000000000000000000000004C
:0E437100000003070707070707070303010003
:0E437F0000000000301010101808080C040296
:0E438D0003010101000000000000000000001C
:0E439B00010101010301010000000000001EED
:0E43A9001918180808040402000000000000A3
:0E43B7000E0E0F1E1E0C06070F1F0E0E04002A
:0E43C5000000000000000000000000000000EA
:0E43D3000000000000000000000000000000DC
:0E43E1000000000000000000000000000000CE
:0E43EF000000000000000000000000000000C0
:0E43FD000000000000000000000000000000B2
:0E440B000000000000000000000000000000A3
:0E441900000000000000000000000000000095
:0E442700000000000000000000000000000087
:0E443500000000000000000000000000000079
:0E44430000000000000000000000000000006B
:0E44510000000000000000000000000000005D
:0E445F0000000000000000000000000000004F
:02446D0000004D
:0E446F00FFFFFFFFFFFFFFFFFFFFFFFFFFFF4D
:0E447D00FFFFFFFFFFFFFFFFFFFFFFFFFFFF3F
:0E448B00FFFFFFFFFFFFFFFFFFFFFFFFFFFF31
:0E449900FFFFFFFF7F7F3F3F3F3F3F5F9FDF03
:0E44A700DFFFFFFFFFFFFFFFFFFFFFFFFFFF35
:0E44B500FFFFFFFFFFFFFFFFFFFFFFFFFFFF07
:0E44C300FFFFFFFFFFFFFFFFFFFFFFFFFFFFF9
:0E44D100FFFFFFFFFFFFFFFFFFFFFFFFFFFFEB
:0E44DF00FFFFFFFFFFFFFFFFFFFFFFFFFFFFDD
:0E44ED00FFFFCFEFF7F7FFFFFFFFFFFFFFFF1F
:0E44FB00FFFFFFFFFFFFFFFFFFFFFFFFFFFFC1
:0E450900FFFFFFFFFFFFFFFFFFFF7F1F0F0FF2
:0E45170007030101000000008487A2625A65BC
:0E452500B577F7FB7B7F7FFFFFFFFFFFFFFFF8
:0E453300FFFFFFFFFFFFFFFFFFFFFFFFFFFF88
:0E454100FFFFFFFFFFFFFFFFFFFFFFFFFFFF7A
:0E454F00FFFFFFFFFFFFFFFFFFFFFFFFFFFF6C
:0E455D00FFFFFFFFFFFFFFFFFFFFFFFFFFFF5E
:0E456B00FFFFFFFFFFFFFFFFFFFFFFFFFFFF50
:0E457900FFFFFFFFFFFFFFFFFFFFFFFFFFFF42
:0E458700FFFFFFFFFFFFFFFFFFFF03E0E0E08D
:0E459500E0E0E0E8E8E4E4F0F2C3C3C9444427
:0E45A30044431213190C2CA494931B1F6F7722
:0E45B1007F7FFFFFFFFF0F037FFFFFFFFFFF76
:0E45BF00FFFFFFFFFFFFFFFFFFFFFFFFFFFFFC
:0E45CD00FFFFFFFFFFFFFFFFFFFFFFFFFFFFEE
:0E45DB00FFFFFFFFFFFFFFFFFFFFFFFFFFFFE0
:0E45E900FFFFFFFFFFFFFFFFFFFFFFFFFFFFD2
:0E45F700FFFFFFFFFFFFFFFFFFFFFFFFFFFFC4
:0E460500FFFFFFFFFFFFFFFFFFFFFFFFFFFFB5
:0E461300FFFFFFFFFFFFFFFFFFFFFFFFFFE4C2
:0E46210080800080C0C0C0C0C8D8D8DCDCDEFD
:0E462F009E9EBE3F3F3F7FFF000080000102C5
:0E463D0007FFFFFFFFFFFFFFFFFF3F7FFFFFB5
:0E464B00FFFFFFFFFFFFFFFFFFFFFFFFFFFF6F
:0E465900FFFFFFFFFFFFFFFFFFFFFFFFFFFF61
:0E466700FFFFFFFFFFFFFFFFFFFFFFFFFFFF53
:0E467500FFFFFFFFFFFFFFFFFFFFFFFFFFFF45
:0E468300FFFFFFFFFFFFFFFFFFFFFFFFFFFF37
:0E469100FFFFFFFFFF00000103030303011FF3
:0E469F000723337FFFFFFFFF7F3F1F0F07033F
:0E46AD00020606070F0F1F0FFFFEFFFEFFFFA6
:0E46BB00FEFC180040F0FF7F3F1F070080C08C
:0E46C900FFFFFFFFFFFFFFFFFFFFFFFFFFFFF1
:0E46D700FFFFFFFFFFFFFFFFFFFFFFFFFFFFE3
:0E46E500FFFFFFFFFFFFFFFFFFFFFFFFFFFFD5
:0E46F300FFFFFFFFFFFFFFFFFFFFFFFFFFFFC7
:0E470100FFFFFFFFFFFFFFFFFFFFFFFFFFFFB8
:0E470F00FF7FBFFFFFFFFFF0C0800030707023
:0E471D007070E0E0E0E0E2E7EBC34040000037
:0E472B0000000000000000000000FFFFFFFF84
:0E473900CF07030000000080E0F0F8FCFEFE59
:0E474700FFFFFFFFFFFFDFFF7FFFFF7F1F1E53
:0E4755007C7D3F0F4F6FFF7F77B7F7F7FFFFB9
:0E476300FFFFFFFFFFFFFFFFFFFFFFFFF3FB66
:0E477100FBFBFBFB3BFBFBFBFB3BFBFBFBFB00
:0E477F00FBFBFBFBFB1BFBFB7BFBFBFBFBFBD2
:0E478D00F303F3A85BAB5BAB5BAB5BAB58A875
:0E479B0058A858A858A858A858A858A858A810
:0E47A90058A858A8F000F0A858A85AAB5BAB6F
:0E47B7005BAB58A858A858AA5BAB5BAB5BABDA
:0E47C5005BAB5BAB5BAB5BABF001F3FBF8F8FF
:0E47D300F8F8F8F838B8B8B8BAFBFBFBFBFBF7
:0E47E100FBBBFBFB7BFBFBFBFBFBFBFBF303D0
:0E47EF007FFFFFFFFFFFF0EFEFEFEFF0FF8027
:0E47FD00EEEEF1FFF1EEEEE0FFFEF0EEEEFF6D
:0E480B00FFFF7F007FAAD5AAD5AAD5AAD5AAFD
:0E481900D5AAD5AAD5AAD5AAD5AAD5AAD5AA18
:0E482700D5AAD5AAD5AA7F007FAAD5AAD5AA60
:0E483500D5AAD5AAD5AAD5AAD5AAD5AAD5AAFC
:0E484300D5AAD5AAD5AAD5AAD5AA7F007FFFEF
:0E485100FFFFFFFFFFFFE0EDEDEDEFFFE4FBEB
:0E485F00FBE4FFE0FFFEF0EEEEFFFFFFFFFFC9
:02486D007F00CA
:0E486F00FFFFFFFFFFFFFFFFFFFFFFFFFFFF49
:0E487D00FFFFFFFFFFFFFFFFFFFFFFFFFFFF3B
:0E488B00FFFFFFFFFFFFFFFFFFFFFFFFFFFF2D
:0E489900FFFFFFFFFFFFFFFFFFFFFFFFFFFF1F
:024C6D00FFFF47
:0E4C6F00000000000000000000000000000037
:0E4C7D00000000000000000000000000000029
:0E4C8B0000000000000000000000000000001B
:0E4C990000000000000000000000000000000D
:02506D00000041
:0E506F00E0EDEDEDEFFFE4FB000000000000BF
:0E507D00000000000000000000000000000025
:0E508B00000000000000000000000000000017
:0850990000000000000000000F
:0E50A100FFFFFFFFFFFFFFFFFFFFFFFFFFFF0F
:0E50AF00FFFFFFFFFFFFFFFFFFFFFFFFFFFF01
:0E50BD00FFFFFFFFFFFFFFFFFFFFFFFFFFFFF3
:0E50CB00FFFFFFFFFFFFFFFFFFFFFFFFFFFFE5
:0E50D900FFFFFFFFFFFFFFFFFFFFFFFFFFFFD7
:0E50E700FFFFFFFFFFFFFFFFFFFFFFFFFFFFC9
:0E50F500FFFFFFFFFFFFFFFFFFFFFFFFFFFFBB
:0E510300FFFFFFFFFFFFFFFFFFFFFFFF0000AA
:0E511100000000000000000000000000000090
:0E511F00000000000000000000000000000082
:0E512D00000000000000000000000000000074
:0E513B00000000000000000000000000000066
:0E514900000000000000000000000000000058
:0E51570000000000000000000000000000004A
:0E51650000000000000000000000000000003C
:0E51730000000000000000000000000000002E
:0E518100000000000000000000000000000020
:0E518F00000000000000000000000000000012
:0E519D00000000000000000000000000000004
:0E51AB000000000000000000000000000000F6
:0E51B9000000000000000000000000000000E8
:0651C700000000000000E2
:0E51CD000000000000000000000000000000D4
:0E51DB000000000000000000000000000000C6
:0E51E9000000000000000000000000000000B8
:0E51F7000000000000000000000000000000AA
:0E52050000000000000000000000000000009B
:0E52130000000000000000000000000000008D
:0E52210000000000000000000000000000007F
:0E522F00000000000000000000000000000071
:0E523D00000000000000000000000000000063
:0E524B00000000000000000000000000000055
:0E525900000000000000000000000000000047
:0E526700000000000000000000000000000039
:0E52750000000000000000000000000000002B
:0E52830000000000000000000000000000001D
:0E52910000000000000000000000000000000F
:0E529F00000000000000000000000000000001
:0E52AD000000000000000000000000000000F3
:0E52BB000000000000000000000000000000E5
:0E52C9000000000000000000000000000000D7
:0E52D7000000000000000000000000000000C9
:0E52E5000000000000000000000000000000BB
:0652F300000000000000B5
:0E52F9000A0D205072657373207320666F7269
:0E5307002073746F7070696E67207468652083
:0E53150074696D657220696E746572727570D0
:02532300740014
:0E5325000A0D205072657373206520666F724A
:0E53330020656E61626C696E6720746865208B
:0E53410074696D657220696E746572727570A4
:02534F007400E8
:0E5351000A0D205072657373206320666F7220
:0E535F0020636C656172696E67207370656310
:0E536D0069666963206C6F636174696F6E73AB
:01537B000031
:0E537C000A0D205072657373203620666F7222
:0E538A0020706C6179696E67206361746368DE
:0E539800696E672074686520636F6D707574B0
:0953A60065722067616D6520004D
:0E53AF000A0D205072657373207720666F72AE
:0E53BD0020706C6179696E672077616C6B6996
:0E53CB006E67207468726F7567682070616786
:0953D90065732067616D65200019
:0E53E2000A0D205072657373202E20666F72C4
:0E53F0002070617468206F62737461636C6575
:0E53FE0020646576696174696F6E2067616D69
:03540C0065200018
:0E540F000A0D205072657373203920666F728B
:0E541D0020646973706C6179696E6720746831
:0E542B00652062696767657220766572736935
:0E5439006F6E206F662076697375616C73204C
:0E544700666F72207468652067616D652000D5
:0E5455000A0D205072657373203820666F7246
:0E54630020646973706C6179696E67207468EB
:0E5471006520736D616C6C65722076657273D8
:0E547F00696F6E206F662076697375616C73BD
:0E548D0020666F72207468652067616D65206F
:01549B000010
:0E549C000A0D205072657373205B20666F72DC
:0E54AA0020646973706C6179696E67207468A4
:0E54B8006520455344204C4142206D657373BE
:0554C600616765200094
:0E54CB000A0D205072657373207220666F7296
:0E54D9002073656C656374696E672074686586
:0E54E7002072696768742073696465206F66BF
:0554F500204C434400BF
:0E54FA000A0D205072657373203120666F72A8
:0E5508002073656C656374696E672074686556
:0E551600206C6566742073696465206F6620E2
:045524004C434400B0
:0E5528000A0D205072657373207620666F7234
:0E55360020636C656172696E67207468652081
:0A55440077686F6C65204C4344004B
:0E554E000A0D20656E74657220746865206316
:0E555C006F6D6D616E6420796F752077616EE2
:05556A0074203A20004E
:0B556F000A0D206820697320257500DC
:0B557A000A0D207A20697320257500BF
:0E5585000A0D20706F696E7420697320256412
:025593002000F6
:0B5595000A0D207020697320257500AE
:0B55A0000A0D206420697320257500AF
:0B55AB000A0D206220697320257500A6
:0255C100C00028
:0255C300C00026
:0255C5000000E4
:0255C7000100E1
:0255C9004000A0
:0255CB000000DE
:0255CD000000DC
:0255CF000000DA
:0255D1000000D8
:0255D3000000D6
:0255D5000000D4
:0255D7000000D2
:0255D9000000D0
:0255DB000000CE
:0255DD000000CC
:0255DF000000CA
:0255E1000100C7
:0255E3000000C6
:0E55E500B800B900BA00BB00BC00BD00BE009B
:0255F300BF00F7
:0E55F500B800B900BA00BB00BC00BD00BE008B
:02560300BF00E6
:06003D00E478FFF6D8FD97
:08001B007944E94400601B7AFE
:05002300019055C178B9
:030028004A75A076
:0A002B0030E493F2A308B8000205C8
:08003500A0D9F4DAF275A0FF76
:052A3F00C010858110AC
:0B2A4400E51024FDF886831886821838
:0E2A4F00E493A324DB600C24256005122B2CDD
:022A5D0080F007
:032A5F00022B4403
:092A6200D2D5E493A3C083C08225
:032A6B00B473142D
:092A6E0086F01886831886821890
:0B2A77001234326053A3122B2C80F5A8
:0A2A8200B46307E618122B2C804302
:0E2A8C00B46417E630E74618E6F42401F608B5
:0C2A9A00E6F43400F6742D122B2C80336F
:0A2AA600B4782D868318868218E4A8
:0B2AB000122B1DE583122B1CE5831286
:0A2ABB002B1DE582122B1CE5821290
:0A2AC5002B1D30D5057430122B2CA8
:072ACF00D082D083022A4FE0
:032AD600B475F6DE
:062AD900E6FA18E6F91808
:0D2ADF007C107D27122B07FF7CE87D031281
:0E2AEC002B07C4F5837C647D00122B07428308
:0D2AFA00E975F00A84C445F0F582EF80A96B
:022B07007B0051
:0E2B09000BC3E99CF9EA9DFA50F61BE92CF982
:052B1700EA3DFAEB228B
:012B1C00C4F4
:072B1D00540F700320D51FC7
:082B2400C2D52490D43440D442
:0E2B2C00C083C082C0F0F582E8C0E012006FE6
:092B3A00D0E0F8D0F0D082D08385
:012B4300226F
:032B4400D010228C
:080043007800E84400600A792E
:03004B000075A09D
:06004E0000E4F309D8FCF8
:08005400784AE84400600C79D1
:0B005C0001903000E4F0A3D8FCD9FABA
:082B4700C010858110AA821262
:052B4F00006FD0102210
:0E2B5400AAF0AB83E58290301DF0A3EBF0A356
:0E2B6200EAF090301DE0FAA3E0FBA3E0FC9047
:0E2B7000301CE0FD903030E4F0A3F0A3F090B4
:0E2B7E003033EAF0A3EBF0A3ECF0903036ED2C
:072B8C00F0902B47022CAC76
:062B9300C010858110E571
:0C2B99001024FBFA903030E4F0A3F0A30D
:0C2BA500F0E51024FBF8903033E6F00857
:0D2BB100A3E6F008A3E6F0903036EAF090BD
:0A2BBE002B47122CACAA82AB83D087
:022BC8001022D9
:0C2BCA00E58290302CF090302CE0FA9066
:0E2BD6003022E0C0E0A3E0C0E0A3E0C0E07465
:082BE400F8C0E0742BC0E09082
:0C2BEC003020E0C0E0A3E0C0E08A8222BC
:0E2BF80015811581158190302AE0FAA3E0FBCB
:0C2C060090302A74012AF0E43BA3F02275
:0E2C1200E58290302DF090302DE0FA74302ADB
:0C2C2000FA24C6500A74072AFA30000398
:032C2C0043022040
:052C2F008A82022BCA9D
:0E2C3400E58290302EF090302EE0FAC4540F5E
:0E2C4200FBF582C002122C12D00253020F8A40
:042C500082022C12BE
:0E2C5400E58290302FF0903025E0FAA3E0FBEF
:0E2C6200A3E0FCA3E0FD903029E0FE90302FAF
:042C7000E0FF7820E9
:0E2C7400EE2EFEED235401F94206EA2AFAEB99
:0E2C820033FBEC33FCED33FDC3EE9F4007EE59
:062C9000C39FFE43020198
:0E2C9600D8DC903025EAF0A3EBF0A3ECF0A31D
:082CA400EDF0903029EEF02262
:0E2CAC00AA83E582903037F0A3EAF09030372B
:0E2CBA00E0FAA3E0FB903020EAF0A3EBF090EC
:0E2CC8003030E0FAA3E0FBA3E0FC903022EAFB
:0E2CD600F0A3EBF0A3ECF090302AE4F0A3F0B2
:0E2CE400903033E0FAA3E0FBA3E0FC8A828B81
:0E2CF200838CF0123432FD90303374012AF0DE
:0D2D0000E43BA3F0A3ECF0ED70030233D32D
:052D0D00BD250280035A
:032D12000233CBBE
:052D1500C201C202C270
:042D1A0003C204C22A
:042D1E0005C206C222
:042D220007C208904C
:092D26003039E4F090303AF090ED
:0E2D2F00303B74FFF0903033E0FAA3E0FBA3DA
:022D3D00E0FCB8
:0E2D3F008A828B838CF0123432FEA3AA82AB00
:0D2D4D0083903033EAF0A3EBF0A3ECF0909C
:0D2D5A00303DEEF0BE25088E82122BCA021D
:022D67002CE45A
:052D69008E07BF3000E1
:0E2D6E0040498E07EF24C6404290303BE0FF04
:0E2D7C00BFFF29C002C003C00490303AE0FA45
:0E2D8A0075F00AA4FAEE24D090303A2AF090A8
:0D2D9800303AE0FAD004D003D002709BD294
:032DA50002809712
:0E2DA800EF75F00AA4FFEE24D090303B2FF020
:032DB600022D3FAC
:0E2DB90090303DE0FEBE2E0890303BE4F0026C
:022DC7002D3F9E
:0E2DC9008E82C002C003C004C006123452E560
:0C2DD7008224FF9200D006D004D003D06C
:0B2DE3000230000790303D74DF5EF00E
:0A2DEE0090303DE0FEBE200280554B
:052DF800BE2B02804B20
:052DFD00BE2D02804123
:052E0200BE4202804BFE
:052E0700BE43028050F3
:062E0C00BE440302304049
:062E1200BE46030230621F
:062E1800BE490302304038
:052E1E00BE4C028034EF
:062E2300BE4F0302304A1D
:062E2900BE5003022FA2BF
:052E2F00BE53028042C9
:062E3400BE5503023052FE
:062E3A00BE580302305AED
:032E4000023066F7
:052E4300D201022D3F49
:052E4800D203022D3F42
:052E4D00D204022D3F3C
:052E5200D206022D3F35
:052E5700D207022D3F2F
:0E2E5C00903036E0FA24FEF8903036F0860210
:0C2E6A00088603188A82122BCA023072FC
:0E2E7600903036E0FA24FDF8903036F08602F7
:0E2E84000886030886041818903025EAF0A38B
:0E2E9200EBF0A3ECF0903025E0FAA3E0FBA3F8
:0E2EA000E0FC8A828B838CF01233DFAA82ABB7
:0E2EAE008390303BE0FBBBFF0590303BEAF029
:0C2EBC0020013890303AE0FBC3EA9B5044
:0D2EC8002E90303AEBC39AF090303AE0FBC8
:0D2ED5008B041B90303AEBF0BC0002801023
:0E2EE200758220C002C003122BCAD003D0029A
:022EF00080E37D
:052EF20090303AEBF006
:052EF70090303BE0FDFE
:0E2EFC00C002903025E0FCA3E0FFA3E0FA8CBA
:0E2F0A00828F838AF0123432D00260538D041D
:0E2F18001DC374808CF063F08095F05044C0AF
:0A2F260002903025E0F511A3E0F55C
:082F300012A3E0F51374012562
:072F380011FBE43512FAACB5
:0C2F3F0013903025EBF0A3EAF0A3ECF0B7
:072F4B0085118285128385C8
:0C2F520013F0123432FAF582C002C00500
:0B2F5E00122BCAD005D002D0028093D5
:062F69002001030230729A
:0D2F6F0090303AE0FBC3EA9B400302307251
:0C2F7C0090303AEBC39AF090303AE0FA43
:0E2F88008A031A90303AEAF0BB000302306D63
:0C2F9600758220C002122BCAD00280E617
:0E2FA200903036E0FB24FDF8903036F08603C8
:0E2FB0000886040886071818903025EBF0A359
:0E2FBE00ECF0A3EFF0903027E0FB247F5008EA
:082FCC0090303D7443F08020B9
:0D2FD400EB249F500890303D7450F08013A6
:0D2FE100EB24BF500890303D7449F080068D
:062FEE0090303D7458F024
:0E2FF40090303DE0FBF582C003122BCAD003E3
:0E30020075823AC003122BCAD003758230C00B
:0E30100003122BCAD003758278C003122BCA9C
:07301E00D003BB4902800F43
:05302500BB5002800A0F
:0A302A00903026E0FBF582122C34F2
:0C303400903025E0FBF582122C34803235
:0A304000D205903039740AF08028A0
:08304A009030397408F0802079
:08305200903039740AF0801877
:08305A009030397410F0801071
:04306200D208800C04
:073066008E82122BCA8005C7
:05306D0090303AEAF08A
:0C30720030086B903036E0FA24FCF89037
:0E307E003036F08602088603088604088606AF
:0E308C00181818903025EAF0A3EBF0A3ECF032
:0B309A00A3EEF090302574B6F0A37494
:0630A50055F0A37480F059
:0E30AB00903025E0FBA3E0FCA3E0FD74012BB8
:0E30B900FEE43CFF8D02903025EEF0A3EFF018
:0E30C700A3EAF08B828C838DF0123432FA7003
:0430D50003022CE4E2
:0730D9008A82122BCA80CB92
:0B30E000903039E0FABA0003022CE443
:0830EB009030447443F0A3741B
:0630F30030F030064C90A5
:0E30F9003036E0FA14F8903036F08602EA33F2
:0E31070095E0FBFCFE903025EAF0A3EBF0A370
:0B311500ECF0A3EEF03005030231BA2D
:0E312000903025E0FAA3E0FBA3E0FCA3E0FE64
:0E312E007B007C007E00903025EAF0A3EBF0E1
:08313C00A3ECF0A3EEF0807695
:0C31440030072A903036E0FA24FCF890A6
:0E3150003036F08602088603088604088606DC
:0E315E00181818903025EAF0A3EBF0A3ECF05F
:05316C00A3EEF0804914
:0E317100903036E0FA24FEF8903036F08602F8
:0E317F0008860318EB3395E0FCFE903025EA3D
:0C318D00F0A3EBF0A3ECF0A3EEF02005A3
:0E31990020903025E0FAA3E0FBA3E0FCA3E0C9
:0E31A700FE7C007E00903025EAF0A3EBF0A342
:0531B500ECF0A3EEF0B8
:0C31BA0030053E903025E0FAA3E0FBA3B6
:0E31C600E0FCA3E0FE30E72B903025E0FAA3FA
:0E31D400E0FBA3E0FCA3E0FEC3E49AFAE49B58
:0E31E200FBE49CFCE49EFE903025EAF0A3EB9B
:0931F000F0A3ECF0A3EEF0800264
:0231F900C2050D
:0831FB00D209903039E0FC75A7
:03320300144375FC
:0432060015307D0002
:0E320A00903029E4F08C82C004C005122C54D0
:0C321800D005D004200932C004903029F9
:0A322400E0FFC4FF851482851583C6
:0A322E00E0FA42078514828515833B
:0A323800EFF0151474FFB514021531
:013242001576
:08324300903044E514F0A3E50E
:06324B0015F0D004800C18
:09325100903029E0FF851482850C
:03325A001583F0E9
:09325D000D90303CEDF0B2099037
:0E3266003025E0FFA3E0FAA3E0FEA3E0FBEFBB
:0C3274004A4E4B7091903044E514F0A3DA
:09328000E515F090303CEDF090F2
:0C328900303AE0FA700690303A7401F020
:0A32950020022720012474012DFA05
:05329F0090303AE0FB55
:0D32A400C3EA9B5011758220C002C00312C6
:0932B1002BCAD003D0021B80EAF5
:0532BA0090303AEBF03A
:0A32BF0030051275822D122BCA9003
:0B32C900303AE0FA1490303AF0802F09
:0C32D40090303CE0FA6028300312758254
:0B32E0002B122BCA90303AE0FA149039
:0532EB00303AF08013F1
:0A32F000300410758220122BCA90E2
:0932FA00303AE0FA1490303AF089
:0933030020012F90303CE0FA900B
:04330C00303AE0FB78
:0E3310008B041B90303AEBF0C3EA9C50363031
:06331E0002047C30800275
:023324007C200B
:0E3326008C82C002C003122BCAD003D00280DA
:01333400DBBD
:0E33350090303AE0FA90303CE0FCC39A500928
:0933430090303AEAC39CF0800CC2
:07334C0090303AE4F0800527
:0533530090303AEBF0A0
:0D335800903044E0FAA3E0FB90303CE0FC34
:0A3365008C061CEE6040B20920093E
:06336F00150ABA00010B73
:0E3375008A828B83E0FEC4540FFE903029F054
:02338300800EBA
:0E3385008A828B83E0FE53060F903029EEF013
:0E339300903029E0FEF582C002C003C0041293
:0A33A1002C12D004D003D00280BA31
:0633AB00200103022CE4E6
:0533B10090303AE0FA43
:0933B6008A031AEB7003022CE4F7
:0C33BF00758220C002122BCAD00280EBE5
:0833CB008D82122BCA022CE4D2
:0C33D30090302AE0FAA3E08A82F5832201
:0B55B6003C4E4F20464C4F41543E003D
:0E33DF00AAF0AB83E582903046F0A3EBF0A39A
:0E33ED00EAF07A007B00903046E0FCA3E0FDA1
:0333FB00A3E0FE4E
:0E33FE008C828D838EF0123432FFA3AC82AD30
:0E340C0083903046ECF0A3EDF0A3EEF0EF60FD
:08341A00070ABA00DF0B80DC99
:0E342200903046ECF0A3EDF0A3EEF08A828B22
:023430008322F5
:03000E00758121D8
:0A00110012344EE582600302006A1B
:0E34320020F71430F6148883A88220F507E6F0
:06344000A8837583002241
:03344600E280F72A
:03344900E49322E7
:02344C00E0227C
:04344E007582002261
:0E345200E582903049F0903049E0FABA61000E
:0B3460004009EA248540047582012227
:04346B007582002244
:00000001FF
